:020000040800F2
:1000000000040020B9020008BB020008BA02000880
:10001000BA020008BA020008BA020008BA020008D0
:10002000BA020008BA020008BA0200080115000866
:10003000BA020008BA020008BA020008BA020008B0
:10004000BA020008BA020008BA020008BA020008A0
:10005000BA020008BA020008BA020008BA02000890
:10006000BA020008BA020008BA02000841290008D2
:1000700011290008E1280008B1280008812800089B
:10008000512800082128000871290008BA02000838
:10009000BA020008BA020008BA020008BA02000850
:1000A000BA020008BA020008BA020008BA02000840
:1000B000D1250008B1250008BA020008BA020008DC
:1000C000BA020008BA020008BA020008BA02000820
:1000D000BA020008BA020008D1230008BA020008D8
:1000E000BA020008BA020008BA020008BA02000800
:1000F000BA020008BA020008BA020008F127000894
:10010000BA020008BA02000891250008BA020008E5
:10011000BA020008BA020008BA020008BA020008CF
:10012000C12700089127000861270008312700082F
:1001300001270008BA020008BA020008BA02000843
:10014000BA020008BA020008BA020008BA0200089F
:10015000D1260008A126000871260008BA0200086E
:10016000BA020008BA020008BA020008BA0200087F
:10017000BA020008BA020008BA020008BA0200086F
:10018000BA020008BA020008BA020008BA0200085F
:10019000BA020008BA020008BA020008BA0200084F
:1001A000BA020008BA020008BA020008BA0200083F
:1001B000BA020008BA020008BA020008BA0200082F
:1001C000BA020008BA020008BA020008BA0200081F
:1001D000BA020008BA020008BA020008BA0200080F
:1001E00072B6274880F30888264880F30988264895
:1001F0004EF60851CEF200010860022080F3148808
:10020000BFF36F8F02F03CFC02F002F84FF0553064
:100210001E491B4A91423CBF41F8040BFAE71C49B6
:10022000184A91423CBF41F8040BFAE719491A4AAF
:100230001A4B9A423EBF51F8040B42F8040BF8E700
:1002400000201749174A91423CBF41F8040BFAE7D6
:1002500002F0CEFB02F00CFC134C144DAC4203DA5E
:1002600054F8041B8847F9E701F0EAFB104C114DE4
:10027000AC4203DA54F8041B8847F9E702F0F0BBFC
:1002800000040020000800200000000800000020FA
:1002900000040020782C00080008002078080020C6
:1002A00078080020F8500020E0010008E001000874
:1002B000E0010008E001000892E700F000F8FEE726
:1002C0002DE9F04FC1F80CD0C3689D46BDE8F08F12
:1002D000002383F311882846A047002001F020F96D
:1002E00001F046F900DFFEE753B94AB9002908BF1B
:1002F00000281CBF4FF0FF314FF0FF3000F072B903
:10030000ADF1080C6DE904CE00F006F8DDF804E06C
:10031000DDE9022304B070472DE9F047089E04464A
:100320008846002B4BD18A42154667D9B2FA82F231
:100330004AB1C2F1200701FA02F320FA07F795400B
:1003400047EA030894404FEA154E230CB8FBFEF72A
:100350001FFA85FC0EFB178843EA084307FB0CF1E4
:10036000994209D9EB1807F1FF3080F01B819942BF
:1003700040F21881023F2B445B1AA4B2B3FBFEF09B
:100380000EFB103344EA034400FB0CFCA44509D9DE
:100390002C1900F1FF3380F00781A44540F204815D
:1003A00002382C4440EA0740A4EB0C0400271EB19D
:1003B000D4400023C6E900433946BDE8F0878B42AC
:1003C00009D9002E00F0EB800027C6E9000138466D
:1003D0003946BDE8F087B3FA83F7002F47D18B4247
:1003E00002D3824200F2FA80841A61EB03030120F7
:1003F0009846002EE0D0C6E90048DDE702B9FFDEEE
:10040000B2FA82F2002A40F08F80491B4FEA154E63
:100410001FFA85F80127B1FBFEFC230C0EFB1C1113
:1004200043EA014308FB0CF1994207D9EB180CF1A0
:10043000FF3002D2994200F2CD808446591AA3B20D
:10044000B1FBFEF00EFB101443EA044408FB00F875
:10045000A04507D92C1900F1FF3302D2A04500F2C4
:10046000B6801846A4EB080440EA0C409FE7C7F1A9
:10047000200CBB4022FA0CFE4EEA030E01FA07F4F0
:1004800020FA0CF521FA0CF34FEA1E482543B3FB82
:10049000F8F92C0C08FB19331FFA8EFA44EA0343CF
:1004A00009FB0AF49C4202FA07F200FA07F10BD9A1
:1004B0001EEB030309F1FF3080F087809C4240F27D
:1004C0008480A9F1020973441B1BADB2B3FBF8F0A1
:1004D00008FB103345EA034400FB0AFAA24508D999
:1004E0001EEB040400F1FF336BD2A24569D9023838
:1004F000744440EA0940A0FB0289A4EB0A044C457D
:10050000C2464B4654D351D0002E69D0B1EB0A05F8
:1005100064EB030404FA0CFCFD40FC404CEA0505C6
:10052000C6E90054002747E7C2F1200320FA03F789
:10053000954001FA02F021FA03F34FEA154E3843D1
:10054000010CB3FBFEF71FFA85F80EFB173341EAE7
:10055000034107FB08F38B4204FA02F407D9691838
:1005600007F1FF3C2FD28B422DD9023F2944CB1AF1
:1005700081B2B3FBFEF00EFB103341EA034100FBF6
:1005800008F38B4207D9691800F1FF3C17D28B4260
:1005900015D902382944C91A40EA07473BE73746CC
:1005A000304609E70746E7E61846FBE64145ABD289
:1005B000B8EB020A69EB0E0201381346A4E7604665
:1005C000E9E7184695E76746D1E781467CE70238B8
:1005D0002C4447E7ACF1020C2B442FE7384608E7E0
:1005E0003746E9E6704700BF844641EA000313F04E
:1005F00003036DD1403A41D351F8043B40F8043B2A
:1006000051F8043B40F8043B51F8043B40F8043BEC
:1006100051F8043B40F8043B51F8043B40F8043BDC
:1006200051F8043B40F8043B51F8043B40F8043BCC
:1006300051F8043B40F8043B51F8043B40F8043BBC
:1006400051F8043B40F8043B51F8043B40F8043BAC
:1006500051F8043B40F8043B51F8043B40F8043B9C
:1006600051F8043B40F8043B51F8043B40F8043B8C
:1006700051F8043B40F8043B403ABDD2303211D32C
:1006800051F8043B40F8043B51F8043B40F8043B6C
:1006900051F8043B40F8043B51F8043B40F8043B5C
:1006A000103AEDD20C3205D351F8043B40F8043B2C
:1006B000043AF9D2043208D0D2071CBF11F8013B2A
:1006C00000F8013B01D30B8803806046704700BFF0
:1006D000082A13D38B078DD010F003038AD0C3F1FF
:1006E0000403D21ADB071CBF11F8013B00F8013BE1
:1006F00080D331F8023B20F8023B7BE7043AD9D3A0
:10070000013A11F8013B00F8013BF9D20B78037074
:100710004B7843708B788370604670470000000010
:10072000224A1369D1681878F0B4146B28B10129F2
:1007300094BF44F4807444F48474D06A5D88006883
:100740009668C66001FB05F14160D96804600768DE
:10075000DE69926A1C69013D47F00107076046EABD
:1007600005555869002616609E69D060D3E90803D4
:1007700041F08061166141F48071D562106353636A
:100780006300516006D444F4407444F00104946062
:10079000F0BC704724F0804340F2033123F00203A1
:1007A0000C430B4393609460F0BC704778080020C2
:1007B000014B5B6883607047001000E000000000A0
:1007C000F0B4202383F311880D4DD5E900744E1E3B
:1007D0003A448319494290190B4008400344A3420C
:1007E00007D89F4205D82B60002383F31188F0BC03
:1007F00070470020002383F31188F0BC704700BFCE
:10080000F80A0020000000000000000000000000C6
:10081000024AD36843F08003D3607047004400402D
:10082000202383F311880F4B5B6813F4006302D11C
:1008300083F311887047EFF309834FF0807243F818
:10084000042CA3F1200282F30988074A11689269F7
:100850008968926891428CBF044A054A43F8082C83
:10086000704700BF00ED00E060090020E1020008D1
:10087000E40200080000000000000000000000008A
:1008800070B40B4CD4E90063721E4D420A44013926
:100890000144294002EA05000144994204D88E42ED
:1008A00002D8216070BC7047002070BC704700BF48
:1008B000F80A002000000000000000000000000016
:1008C0000E4B0F4A5B68C168F0B48468566F42688B
:1008D0001B1BD0E904459B1BE61845F1000793421A
:1008E000026888BF436001319342C0E90467C0E9F0
:1008F000023138BF0360F0BC704700BF001000E059
:10090000600900200000000000000000000000005E
:10091000202383F3118890F82030072B0ED8DFE8CE
:1009200003F0280D0D2408040D08426A9368013372
:100930009360D0E900231A600268536010B400226B
:100940004FF0FF3481680D4B446280F820201B6813
:100950009A688A42FBD25A680021C0E900321060CE
:10096000586081F3118810BC7047436A00221A60F6
:10097000E4E7002383F31188704700BF600900207B
:1009800001460022074B806881F820201B689A6886
:100990008242FBD25A680846C1E9003211605960B0
:1009A000704700BF60090020000000000000000048
:1009B000F8B5164F57F8044FBC4220D00546002624
:1009C00004E00B2A1CD02468BC4218D0E3682B43F7
:1009D000E36015B122691342F5D0D4E90103416BFC
:1009E00090F820200B430A2A4363EAD1426A13425B
:1009F000E9D04662FFF7C4FF2468BC42E6D1F8BDE7
:100A0000426A32EA0303DED1F3E700BFE4080020C4
:100A1000FEE700BF00000000000000000000000032
:100A2000836970B51A69DC681440E2B2D243A60744
:100A300005461A6103D543681B6903B198476007EF
:100A400004D56B689B690BB128469847210704D5EC
:100A50006B681B6A0BB128469847E20604D56B68A1
:100A60009B6A0BB128469847E30706D56B689B68DD
:100A70001BB12846BDE87040184770BD000000005B
:100A800030B403788269012B4DD000231360536387
:100A90009363D36313645362D0E90114CB680D6888
:100AA0004069B0FBF5F003F00F03CD6A013C01385B
:100AB000012B9062D462556040D0022B31D143F0BB
:100AC0000103486900F00F00012827D0022823D035
:100AD000C86900F00F0001281BD0022817D0486A0F
:100AE00000F00F00012803D0022803D143F4005383
:100AF00043F48053096B1362012421F0FF030020AB
:100B000085215461106130BCD3601160704743F49B
:100B1000007343F48073E2E743F0200343F01003D3
:100B2000D6E70023CDE7214B984209D0204B9842CD
:100B300021D046F668039361D361ADE70023BEE799
:100B40001C4B1D491C6C1D4D44F002041C641C6EA2
:100B500044F002041C661C6A44F002041C62002477
:100B60001C624FF00053702481F81D43C1F880319E
:100B70000B604561DDE70F4B0F491C6C0F4D44F0D6
:100B800008041C641C6E44F008041C661C6A44F0D3
:100B900008041C6200241C624FF48023702481F836
:100BA0003243C1F884314B604561C2E7AC08002094
:100BB000C80800200038024000E100E000BD010547
:100BC00002F0030C2DE9F047D209674600244FF0EC
:100BD00001094FF003084FF00F0E0FE0D0F800A00E
:100BE00003EA0A033B43072C036035D8036A1E401F
:100BF0003543056249082DD0BF000134CB07F9D534
:100C0000436809FA04F523EA050343606300856835
:100C100008FA03F3DB431D408560C66804F007054E
:100C2000AD001E400EFA05FABCF1020FC66002FAD2
:100C300005F56FEA0A06D1D1072C12D8D0F820A00A
:100C400006EA0A063543056205682B403B4349081E
:100C50000360D1D1BDE8F087436A1E403543456249
:100C6000C8E7D0F824A006EA0A0635434562EBE758
:100C700030B4C46A2268136823F01F03136013683A
:100C800013F00103FBD1257A826A60683D21A940F7
:100C9000016053609368012123F08043936030BC6E
:100CA000916070470000000000000000000000009C
:100CB00011F00C0F70B5044635D1036993B38D065E
:100CC00054D51A7872B15D6865B3D0E90212012A71
:100CD00057D95C885208530004FB03112B46BDE82A
:100CE00070401847FFF7C4FF23695B6843B10422D3
:100CF00022702046D4E9021298472378042B03D1AE
:100D00000222002322702361202383F31188636968
:100D10002BB10022626118465A62FFF731FE0023B0
:100D200083F3118870BDFFF7A3FF23699B6863B34A
:100D3000052222700021204698472378052B04BF06
:100D40000223237000232361202383F31188636926
:100D5000002BE4D000214FF0FF32616118465A6247
:100D6000FFF70EFE002383F31188DBE7CA06D9D50F
:100D70005B68002BD6D0D0E90212BDE87040520863
:100D800018472B46BDE870401847022223612270A5
:100D9000DAE700BF000000000000000000000000D3
:100DA000002070470000000000000000000000006C
:100DB00030B4202383F3118801258369C4688D40F2
:100DC0000C3103EB81012C43C46000234A6083F3A0
:100DD000118830BC704700BF000000000000000018
:100DE000154B996930B404468D6880680022A8428A
:100DF00062620CD884F820201B689A689042FBD964
:100E00005A68C4E9003214605C6030BC704781F8F5
:100E100020201A46126890688542FBD950684860C5
:100E200001250A600160516084F8205020469C61D1
:100E300030BCFFF745BA00BF600900200000000089
:100E400070B5202383F311881C4BC0F8DC2000F11F
:100E5000DC025E69C0F80811C0F83C11C0F80C2132
:100E6000174D184AC0F8FC5002240121A0F8204177
:100E700080F8221100F580740025C0F8182100F5D3
:100E8000947100F59672C0F8E050C0F83851C0F87F
:100E90003451C0F81031C0F81461C0F81C0134613D
:100EA000C0F82811C0F82C21C0F8302120465C6120
:100EB000FFF796FF85F31188204670BD600900207A
:100EC000D1020008A02B0008000000000000000074
:100ED000084B99691A6810B481F8200010681860EE
:100EE0000124436082F82040104610BC9A61FFF74D
:100EF000E7B900BF6009002000000000000000000A
:100F0000202383F311880E4A9368013B002B9360E2
:100F100004DB0020002383F31188704710B5094CCF
:100F20005168A3690520C3E900215A620B60536030
:100F3000FFF7CEFFA369586A002383F3118810BD21
:100F4000A00B00206009002000000000000000004D
:100F5000F8B5354D354BA8689C6900283BD0A26890
:100F600083689A4207D990F820308260062B37D0E8
:100F7000072B14D03BB32C4B03E09968A268914235
:100F800002D31B68AB42F8D15A680620C4E900328C
:100F900014605C606562BDE8F840FFF799BFD0E976
:100FA00000131960466A01684B60334602E0996895
:100FB00091422FD31B689E42F9D17368C0E9006348
:100FC00018607060D7E7D0E900231A6002685360A8
:100FD000FFF7D6FCCFE7A36BA563C5E90243F8BDD5
:100FE000D0E900131960466A016837464B60334602
:100FF00002E09968914214D31B689E42F9D17B6844
:10100000A268C0E9007318607860B06883689A428B
:10101000A9D8B0E71E467368C0E900631860706025
:10102000A9E71F46EBE700BFB44B00206009002092
:10103000F0B54B1C87B04CD0414C2546022955F8E1
:101040001C2FA36905934FF0804C074638BF02213F
:101050003C48DCF824300490AA425BD0A66A906831
:101060009B1B59182FD31268091A9068814204D922
:101070001268091A90688842FAD35368029301AE45
:1010800001921E60566003919368591A4FF0FF3326
:10109000916063623846FFF71BFF049B7BB1E269F6
:1010A000019BB2421CD0029A1360019B0021AB420B
:1010B0005A60049103D09A6803990A449A60A3691C
:1010C000586A07B0F0BD8142D0D20E44CCF83460EB
:1010D000CCE71B4CFFF7FCFEA369586A07B0F0BDD4
:1010E0000022AB42E3615D60049224D09A680398C9
:1010F000A16A02444FF080409A60436A5B1A9A42A8
:10110000DDD9D01A012898BF9A1C4FF080430A44B9
:101110005A63D4E7A362581801AE00220223CDE936
:1011200001550391C4E90766CCF83400CCF81020CF
:10113000CCF80C30AEE74FF08043DA60BFE700BF79
:1011400060090020110900080000000000000000F4
:1011500061B1084B10B4024644689B690420C3E99E
:1011600000242360536010BCFFF762BF4FF0FF30D4
:10117000704700BF60090020000000000000000070
:10118000F8B504460F461646202383F3118803E082
:10119000FFF7DEFF002818DBA56831462046002D4A
:1011A000F6D06269A368511C013B6161A3601770AE
:1011B000D4E904329A4224BFE3686361E36903B16E
:1011C0009847002080F31188F8BD85F31188F8BD99
:1011D0003030FFF7D5BF00BF000000000000000066
:1011E00030304FF0FF32FFF7CBBF00BF00000000F0
:1011F00070B5202304460E4683F3118803E0FFF701
:10120000A7FF00281ADBA56831462046002DF6D03E
:10121000A169A36820694A1C013B8242A360A261C4
:1012200028BFE3680D7828BFA361E3690BB12046AE
:101230009847002383F31188284670BD85F31188F1
:1012400070BD00BF000000000000000000000000B2
:101250000C30FFF7CDBF00BF000000000000000011
:101260000C304FF0FF31FFF7C3BF00BF000000009C
:1012700008B50146202383F311880820FFF7D8FE24
:10128000002383F3118808BD000000000000000067
:1012900008B5084B084A9B69084C9A6120252E46E0
:1012A00066830A20FFF7E4FF25830A20FFF7E0FFAB
:1012B000F6E700BF60090020842A00080000024011
:1012C0000E4B0F4A9B690F480F4D0E4C80B54FF4E3
:1012D00000719A610122FFF773FC4FF400763746E4
:1012E00064206783FFF7C4FF26836420FFF7C0FFF5
:1012F0002B68013303F00F032B60F1E76009002036
:101300008C2A000800000240AC0B00200000000006
:101310002DE9F04F83B017460193D0F81CA04FF091
:10132000200B8BF31188002A4ED004460E464FF056
:1013300000080DE0BAF1000F01D02046D04700238D
:1013400083F31188A8442E448BF3118847451BD999
:10135000A3689F42D4E904308CBFA5683D461B1AA0
:10136000AB4229D817D32A463146FFF73DF9E36847
:101370006361A3685B1BA360002DDBD1019920464C
:10138000FFF7E6FE0028E1D0002383F311884046F2
:1013900003B0BDE8F08F1A463146A5EB0309009370
:1013A000FFF722F9009BE068F1184A46FFF71CF9A5
:1013B000E3684B446361DCE72A463146FFF714F9E2
:1013C00063692B446361D4E79046DDE700000000C9
:1013D00010B584B04FF05534019469468DF807007C
:1013E0004FF0FF33102204480094CDE90244FFF788
:1013F0008FFF04B010BD00BF1409002000000000E2
:101400003030FFF785BF00BF000000000000000083
:1014100030304FF0FF33FFF77BBF00BF000000000C
:101420002DE9F04F83B017460193D0F81CA04FF080
:10143000200B8BF31188002A4ED004460E464FF045
:1014400000080DE0BAF1000F01D02046D04700237C
:1014500083F31188A8442E448BF3118847451BD988
:10146000A368A1699F4223698CBFA5683D465B1AAA
:10147000AB4229D817D32A463046FFF7B5F8E368C0
:10148000A361A3685B1BA360002DDBD101992046FB
:10149000FFF75EFE0028E1D0002383F31188404669
:1014A00003B0BDE8F08F1A463046A5EB0309009360
:1014B000FFF79AF8009BE168F0184A46FFF794F8A6
:1014C000E3684B44A361DCE72A463046FFF78CF81B
:1014D000A3692B44A361D4E79046DDE70000000038
:1014E0000C30FFF79DBF00BF0000000000000000AF
:1014F0000C304FF0FF33FFF793BF00BF0000000038
:10150000EFF30983203383F30988002383F31188E1
:10151000704700BF00000000000000000000000055
:1015200038B52022034682F31188104A9469A06AD4
:10153000636204F12805A84206D00368A362FFF79E
:101540001FFAA06AA842F8D194F8223043B994F85F
:1015500021309B0704D1D4E904231A612269536125
:101560000F20BDE83840FFF7B3BC00BF6009002082
:101570000E4A1068036830B4012194695A6000254E
:1015800080F82010A1681360906184F8205000E07A
:101590001B689A689142FBD35A682146C4E900321D
:1015A00014605C6030BCFEF78BBE00BF6009002099
:1015B000044B1A689B6992689B689A4200D87047EE
:1015C000FFF7D6BF60090020000000000000000007
:1015D000174A38B52023956983F3118815490C689B
:1015E000CB68AB638C421CD0E86B4BB11A6893425A
:1015F00003D09268904238BF1046DB68002BF5D1CB
:101600002368A26BA8600B6059602046A163C1E902
:101610000242FFF7B5F9FFF7CBFF002383F31188F0
:1016200038BD0023A360002383F3118838BD00BFB9
:1016300060090020B44B0020000000000000000002
:101640002DE98048DFF8C0B1644ADBF81830644CFB
:10165000644D87B00092644A0192644A9A61012005
:10166000FFF706FE202383F311880123E360604B1C
:1016700023614FF003032370A560FFF751F8DBF8F7
:1016800018305C4A5A6203206361FFF721FC002393
:1016900083F31188009A2B88504F1380524E019A81
:1016A0006B885380B9460097B0460120FFF7E0FDF4
:1016B000202383F311880123E3604D4B23614FF016
:1016C00003032370A560FFF72BF8DBF81830494AB5
:1016D0005A6203206361FFF7FBFB002383F3118849
:1016E0002B8829F8023F6B8828F8023F424B4B4574
:1016F000DBD1009B394A1B88009298469C461846CD
:1017000032F8021F8C4538BF8C46884228BF0846F5
:1017100091458844F4D1CDF808C04FEA98214FF0A4
:10172000000A01E037F8023FC1EB830303FB03F338
:10173000BA420AEB131AF5D12B4BDFF8ACC01B8869
:10174000CDF804C01F4699461A4619463CF802EFE8
:101750002A4B724538BF7246714528BF71466345B2
:101760007744F3D14B464FEA972E4FF0000901E042
:1017700036F8023FCEEB830303FB03F3B44509EBDA
:101780001319F5D1CDE904120390202383F31188B6
:10179000FFF7DEFB002383F31188194A194EBDF8C9
:1017A00008103378D1800499039891814FEA182862
:1017B0001146CAF3072A3F0AC9F30729908001336B
:1017C000A2F80080A2F802A01781A2F80A90059A58
:1017D000CA813370FFF7FCFE41E700BFB40B002065
:1017E00078080020B00B0020B42B0020982A0008B5
:1017F000782B00088C080020B22B0020B24B002070
:10180000C44B0020D44B00206009002000000000E1
:1018100030B5202385B0054683F31188FFF798FB88
:10182000002383F31188074B0FCB6C4684E80F002D
:10183000FFF7CEFE0FCC28606960AA60EB6005B0B0
:1018400030BD00BFC44B00200000000000000000BD
:1018500070B588B004AD04462846FFF7D9FF42F2C0
:10186000107340F2E7300021E4FB03014FF47A7279
:101870000023FEF739FD6C460646FFF7F9FC2046CB
:10188000FFF7C6FF10E0BDF81A20BDF80A100A44A1
:1018900093421CDD94E80F0085E80F003046FFF707
:1018A000E7FC2046FFF7B4FFBDF81030BDF800207C
:1018B0009B1A06D4BDF81220BDF802100A449342C8
:1018C000E8DCBDF81830BDF808209B1ADBD508B05D
:1018D00070BD00BF0000000000000000000000001C
:1018E00070B5124B124D1E782B78B34284B019D0CC
:1018F000202383F31188FFF72BFB002383F3118848
:101900000C4B0FCB6C4684E80F00FFF761FE2146BD
:101910004FF0FF3310220848FFF7FAFC01202E7029
:1019200004B070BD002004B070BD00BFD44B0020D7
:1019300000080020C44B0020140900200000000013
:10194000384B394E9B69394ADFF8E890DFF8E88078
:1019500080B53546364F9A6102E00120FFF788FCDA
:10196000D8F8104014F40054F7D1FFF7C9FA224612
:1019700021462846FFF71CFA4FF4FA60FFF768FF8C
:101980000120FFF725FD02E00A20FFF771FCFFF7B9
:10199000A7FF0028F8D00124B26802FB04F2A7FBDD
:1019A0000232284652090021FFF702FA0A20FFF707
:1019B0004FFF02E00A20FFF75BFCFFF791FF0028D2
:1019C000F8D00134642CE7D10220FFF701FDB368A1
:1019D00003EB83039A00A7FB023252090021284639
:1019E000FFF7E6F9202383F31188D9F80830002B9C
:1019F00005DDFFF7DDFD002383F31188ADE701333B
:101A0000012BC9F80830F4D0D9F800301A68C9F8A9
:101A100000200021C2F8049018465962FEF7B0FF7A
:101A2000E7E700BF60090020C8080020A82A0008D6
:101A30001F85EB51A00B00200008024000000000B1
:101A40001D4B1E481969002261F01F012DE98048D5
:101A50004FF0FF3419611A6159695C615A61196A62
:101A600061F0805119621A62596A5C625A62196C9B
:101A700041F080511964196E41F080511966016876
:101A800041F480710160196F01F44071B1F5007F7C
:101A900089B003D04FF4803119671A670748084AA4
:101AA0004368084D23F400734360074800210B4648
:101AB00001600C460CE000BF00380240007000409E
:101AC000C42A0008106002409C0B002052F80C5CF5
:101AD000CF492C6041F833400133102B02F10C0246
:101AE000F4D1DFF88083DFF880E3CA4DCA4FC8F82D
:101AF00004404FF0FF31CEF808106022C8F80840CB
:101B0000CEF80C10A960C8F80C40E960402587F8B1
:101B100006234FF0800EC8F81040C7F88051C8F86F
:101B200014403D6008F11805BC4EC8F818504FF03D
:101B3000010A87F807234FF48070C7F880E14FF45B
:101B40000079C7F800E04FF4806B4FF4000E08F105
:101B5000180587F80823C7F88001386087F809233B
:101B6000C7F88091C7F8009087F80A23C7F880B1BA
:101B7000C7F800B087F81723DFF8F0B2C7F880E1A4
:101B8000C7F800E087F82823C7F88401786088F850
:101B900000A0C8F81C5087F812234FF48022C7F821
:101BA0008021DFF8CC923A6074610193B3639C4B5F
:101BB000CBF818304FF00403B4468BF8103089F896
:101BC0001030984B984A994D99484CF8042BC9F815
:101BD0001830984AC8F8282003F50B3306F1640240
:101BE000C8E90B5006F10C0E06F1540006F1300561
:101BF000C6F804C0F261C6E903EEB061C6E90800A8
:101C0000C8F8204086F808A0C6E90A468BF800A06C
:101C1000CBF80440CBF80C4089F800A0C9F8044088
:101C2000C9F80C40C6E90C55186CF26340EA0A008A
:101C3000B2641864186EDFF83CE2726440EA0A008D
:101C40001866DEF80800DFF830C27B4DC6F84CC0DD
:101C500006F17402326440EA0A004FF08042DFF875
:101C60001CC2C6F874C036656FF07F03CEF808005A
:101C700042F2CF00906205F11C0CD1624FF0805E01
:101C80006D6002A89461AC6054632D61D4606D6195
:101C900054606962C2F814A0AC62C2F800A087F870
:101CA0001C3300220023C5F81CC0C7F880E1C5F82A
:101CB00020C0C7F800E02D60CDE90623CDE902146D
:101CC0006C67CDE90444FEF773FD02A8FEF7F8FD4A
:101CD0005A495B4A049868678023AB63EB6601F15D
:101CE0000C000423DFF898C14C61C1E90144C1F83C
:101CF00000C0C1E9030002F1100CD361536302F18B
:101D0000280102F124031420C2F810C0906102F1EE
:101D10003C0C536202F1400091621C234949DFF8F8
:101D200064E194605461D4621363C2F83CC01064EF
:101D300011629163C2E90022DFF84CC1424B434A71
:101D4000434885F85140C3E9002CC5E9194485F89A
:101D500052A0A864DEF80C103E4A6B69DFF82CC173
:101D60006B644FF6FF000840024305F130012D641B
:101D70001961CEF80C20DCF80C203748696142F07C
:101D80008072CCF80C200268019BA96105F15C0C03
:101D900005F1580142EA0A02EC6485F850A0A965F1
:101DA0000260C5F85CC08EF81F3001934FF020032D
:101DB000C5F860C08EF8223084F3118862B6202303
:101DC00083F31188254A6B69DFF8C4C02448DFF823
:101DD000C4E0C2F86CC002F16C01C2F89C10C2F8F9
:101DE0008C0002F19001C2F8A8E002F1BC0C02F1F3
:101DF000B80E4FF00200A2F8B000C2F8A430146789
:101E0000C2F898A0C2E9324AC2F8C44044E000BF18
:101E10001C0B00200064024000E100E0E408002008
:101E200000040040000C0040482C0008482B00082B
:101E3000162C02000020014060090020000B002049
:101E4000D809002081080008F80A0020F850002076
:101E5000A82B00080003FA05001000E0200A00206B
:101E6000D10200087808002000600240AC08002081
:101E7000C8080020002004E01108000800440040C9
:101E8000C107000800ED00E000800120F0ED00E057
:101E9000110A0008C02B000882F8B2A0C2F8A050B6
:101EA000C2F8AC2008461961C2E92EECC2F8C0C0E5
:101EB0006961FEF795FF84F31188202383F311886D
:101EC000B94AC9F8042048465268C9F80820FEF704
:101ED000D7FD4FF00202C9F80C4089F8002084F3C6
:101EE00011884FF481725146B048B14DFEF768FE3B
:101EF00002214FF48172AD48FEF762FED9F8082046
:101F000002EB82029200A5FB021248460021520910
:101F1000FEF74EFFD9F8082002EB820202EB8202A4
:101F2000A5FB021252095146FEF742FF20239946B3
:101F300083F311889F4ACBF8042058465268CBF8A7
:101F40000820FEF79DFD4FF00202CBF80C408BF805
:101F5000002084F31188019B974819464FF4817241
:101F6000FEF72EFEDBF8083003EB8303C3EB03130D
:101F7000A5FB0332520958460021FEF719FF89F3E9
:101F80001188337A534500F0FE80736F8B4A8C4979
:101F90009342086800F0868002F58062934200F068
:101FA0008180884AB2FBF0F29A608A88CC880889DE
:101FB00044F0400440F0010042F404511C6141F03F
:101FC0002C01586102F4A0520020D960B2F5806F54
:101FD000186019685B680CBF7F23FF2386F8783090
:101FE00002233372002484F3118840F282320421E8
:101FF0006E48FEF7E5FD40F2823208216B48FEF79D
:10200000DFFD032211467048FEF7DAFD202383F33B
:10201000118898F80030C8F80440012B47D00223FB
:1020200088F80030002585F31188684B684C694AB0
:1020300069489D600126C3E900338121A660C4E997
:102040000044FEF7FDFE654A65488121FEF7F8FE73
:10205000644A65488321FEF7F3FE644A644882219E
:10206000FEF7EEFE202607E0FFF7A2FA85F31188BF
:102070004FF4FA60FFF7FCF8FEF742FFFFF730FC81
:1020800086F31188A368002BEEDC0133012BA360DB
:10209000EAD023681A682260546018465D62FEF731
:1020A0006FFCE1E7534AB2FBF0F29A607DE7D8F8A3
:1020B0002C20514D517A28688B40034248D14F4E15
:1020C000034306EBC1044E482B6013F0FF0FC4F826
:1020D000048046F8310008D04A49086B40F40010EB
:1020E0000863086D40F40010086513F47F4F08D0B2
:1020F000444B196B41F480011963196D41F480015F
:1021000019651368196821F01F011960196811F029
:102110000101FBD1147A55683D20A040212428609C
:1021200019605C61917A4B099B0001F1604403F1F5
:10213000604303F5614304F5614401F01F01012090
:1021400000FA01F1602584F80053C3F8801119608A
:1021500012682C4B2C499160596CD8F828202B48D8
:1021600041F480715964596E41F480715966436835
:1021700003F44003002143F48033012443605160A1
:10218000916094604BE71F490B6C43F400330B6480
:102190000B6E43F400330B66C022402387F82623DE
:1021A000C7F884317B60F0E604080020000002409C
:1021B0001F85EB5138080020000402400010014048
:1021C0006C08002080DE800200080240B44B002032
:1021D000A00B002091120008D84B0020C11200086B
:1021E000204D002041160008684E002041190008CB
:1021F000B04F002000BD01059C0B00201C0B0020EF
:10220000B10C0008003802404C200140002301407E
:102210005D4A5E485E49F0B514695E4D002344F0A6
:102220001F0414611361146B44F01F041463166DD2
:10223000594C46F01F0EC2F850E06FF48A6E4360AE
:10224000C0F808E0DFF880E1C0F80CE04FF6DF7E70
:10225000C0F814E04FF4EE4EC0F820E04FF42A2E00
:10226000C0F824E0DFF864E1C0F800E04FF0FF3789
:102270004FF6FF764FF0553C80204B608F60C1F8E1
:102280000CC04E610B624B620860444844496B606D
:10229000AF60E9606E6143492B626B622B60A5F50C
:1022A000CC356360A760C4F80CC0666123626362CA
:1022B000236043604FF080548760C0F80CC04661D3
:1022C000ACF1050C0362436203604FF400404B60C5
:1022D0008F60C1F80CC04E610B624B620B601464DE
:1022E0002860136843F00103136013689807FCD556
:1022F0009368254923F0030393608B6813F00C0364
:10230000FBD10868204A00F0F90008608B604B6F31
:1023100043F001034B67536F9907FCD5224B536081
:102320001368224943F0807313604B685A04FCD54C
:10233000154A13689B01FCD51D4B1E4991601A6814
:102340001D4B9A4216D01D4B40F202721A600E4A83
:10235000936843F002039360936803F00C03082B27
:10236000FAD1536C43F480435364536E43F4804377
:102370005366F0BD124A134B12689A42E3D10F4BD9
:102380004FF481721A60E2E7003802400000024018
:102390000004024000080240000C0240001002400D
:1023A00055555501001C02401054010700700040B3
:1023B000002004E00010883811640020003C024036
:1023C00000ED00E041C20F4105511564A004802AD0
:1023D0002DE9F047694D6E6FD6F80C803368DA0549
:1023E0009CB27DD4202383F3118814F02F0F4DD09D
:1023F000634F4FF0000908E0A106D6F804A01DD4F1
:102400003468A4B214F02F0F40D02307F4D014F096
:10241000080F0CBF00208020E10748BF40F02000DB
:10242000A20748BF40F04000630748BF40F48070F7
:10243000FEF7BEFAA106D6F804A0E1D56B6995F8BF
:102440007840002B3DD0D5E90832934240D06A69EC
:10245000591C013204EA0A0A6A61296283F800A061
:10246000D5E907329A4201D3AB692B62EB68BB42D4
:10247000C6D01A68EA6018465760C3F82490FEF781
:102480007FFA3468A4B214F02F0FBED1002383F377
:10249000118818F0800F01D022062FD418F0400FB9
:1024A0000BD0630609D5202383F31188D5E91123C6
:1024B0009A4248D0002383F31188BDE8F047FEF725
:1024C000AFB90420FEF774FAD5E908329342BED1C1
:1024D0006A69002ABBD04FF48060FEF769FA8FE783
:1024E000202383F311884FF40070FEF761FA6FF434
:1024F00080733360002383F3118873E7202383F311
:102500001188D5E911239A4229D0AA6B296C581C4D
:102510000132AA63A86488421F7801D3EB6BAB64D5
:102520002B6B184A934209D0196829634FF0000CAD
:102530004A601846C3F824C0FEF722FA77600023E9
:1025400083F31188AAE7AB6B002BB3D01020FEF702
:102550002FFA4FF6BF7308EA0303F360AAE7AA6BEA
:10256000002AD2D00820FEF723FA4FF63F7308EA7C
:10257000030343F04003F360E1E700BFE4080020F9
:10258000F0080020140900200000000000000000F6
:1025900008B50348FEF744FABDE80840FEF740B925
:1025A000C80800200000000000000000000000003B
:1025B00008B50348FEF734FABDE80840FEF730B925
:1025C000AC08002000000000000000000000000037
:1025D0002DE9F0474FF080473B699B0703D4BDE8E6
:1025E000F047FEF71DB900213961202383F31188DC
:1025F0001D4CA146884659F81C3F9A68786AA16A22
:10260000451A95421CD320261868D3F80CA0114413
:102610004845A162A5EB0205C0F80490E061C3F84B
:102620000C8008BFC7F80C8088F311881869D04760
:1026300086F31188E3699A689542DFD3A16AE3E7DC
:10264000E2694A4509D09168A0624D1B95609B687C
:10265000022B2CBFC01802307863002383F311884B
:10266000BDE8F047FEF7DCB860090020000000007C
:10267000084B09485968826F890D01F03D0110B57A
:102680008C05DC600AB1C06F9047BDE81040FEF7D2
:10269000C7B800BF006402401C0B0020000000000F
:1026A000084B09485968026F090C01F03D0110B54B
:1026B0000C04DC600AB1406F9047BDE81040FEF7A3
:1026C000AFB800BF006402401C0B002000000000F7
:1026D000084B09485968826E890901F03D0110B51F
:1026E0008C01DC600AB1C06E9047BDE81040FEF777
:1026F00097B800BF006402401C0B002000000000DF
:1027000008B5074B07485968026E01F03D01D960D2
:102710000AB1406E9047BDE80840FEF781B800BF9F
:10272000006402401C0B00200000000000000000BC
:10273000084B09481968826D890D01F03D0110B5FB
:102740008C059C600AB1C06D9047BDE81040FEF753
:1027500067B800BF006402401C0B002000000000AE
:10276000084B09481968026D090C01F03D0110B5CC
:102770000C049C600AB1406D9047BDE81040FEF724
:102780004FB800BF006402401C0B00200000000096
:10279000084B09481968826C890901F03D0110B5A0
:1027A0008C019C600AB1C06C9047BDE81040FEF7F8
:1027B00037B800BF006402401C0B0020000000007E
:1027C00008B5074B07481968026C01F03D01996094
:1027D0000AB1406C9047BDE80840FEF721B800BF41
:1027E000006402401C0B00200000000000000000FC
:1027F000084B09485968826B890D01F03D0110B5FD
:102800008C05DC600AB1C06B9047BDE81040FEF754
:1028100007B800BF006002401C0B00200000000051
:10282000084B09485968026B090C01F03D0110B5CD
:102830000C04DC600AB1406B9047BDE81040FDF726
:10284000EFBF00BF006002401C0B00200000000032
:10285000084B09485968826A890901F03D0110B5A1
:102860008C01DC600AB1C06A9047BDE81040FDF7FA
:10287000D7BF00BF006002401C0B0020000000001A
:1028800008B5074B07485968026A01F03D01D96055
:102890000AB1406A9047BDE80840FDF7C1BF00BFDC
:1028A000006002401C0B002000000000000000003F
:1028B000084B094819688269890D01F03D0110B57E
:1028C0008C059C600AB1C0699047BDE81040FDF7D7
:1028D000A7BF00BF006002401C0B002000000000EA
:1028E000084B094819680269090C01F03D0110B54F
:1028F0000C049C600AB140699047BDE81040FDF7A8
:102900008FBF00BF006002401C0B002000000000D1
:10291000084B094819688268890901F03D0110B522
:102920008C019C600AB1C0689047BDE81040FDF77B
:1029300077BF00BF006002401C0B002000000000B9
:1029400008B5074B074A196801F03D019960136803
:102950000BB150689847BDE80840FDF761BF00BF64
:10296000006002401C0B002000000000000000007E
:102970001C4B1A680021196093062CD510B51A4C0F
:10298000E36A1B685B6813B3236903B32046FEF751
:102990006FF923699B6803B3052222700121204649
:1029A00098472378052B04BF02232370002323615B
:1029B000202383F31188606930B14FF0FF33436205
:1029C00000236361FDF7DCFF002383F31188BDE87A
:1029D0001040FDF725BFFDF723BF022223612270BF
:1029E000E6E700BF0020014078080020000000005A
:1029F000F0B4144E144D154C154B164906F1700CDD
:102A000000279C4211D904391A4651F8040F42F8A4
:102A1000040B9442F9D8DA43144424F00304043438
:102A200023449D4203D943F8047B9D42FBD866456D
:102A300005D0D6E90413D6E906451036E1E7F0BC27
:102A4000704700BFC82B0008F8500020F850002045
:102A5000F8500020F02C00080000000000000000EA
:102A6000FEE700BF000000000000000000000000C2
:102A7000704700BF000000000000000000000000E0
:042A8000704700BFDC
:102A8400626C696E6B657200566F6C746167655435
:102A940065737400416E616C6F6752656164657241
:102AA40000000000566F6C7461676553776565704C
:102AB40065720000106002400860024000000B00D4
:102AC400286002400860024006010C004060024099
:102AD4000860024010020D00586002400860024085
:102AE40016030E00706002400C60024000040F00E8
:102AF400886002400C60024006051000A06002409D
:102B04000C60024010061100B86002400C600240E4
:102B140016072F00106402400864024000083800C1
:102B240028640240086402400609390040640240F7
:102B340008640240100A3A005864024008640240E3
:102B4400160B3B00706402400C640240000C3C0015
:102B5400886402400C640240060D4400A0640240F4
:102B64000C640240100E4500B86402400C6402403C
:102B7400160F4600000002000000000000000000E4
:102B8400FFFFFFFC000000401B00000000000000ED
:102B940000000000000000006A0100006E6F6E611A
:102BA4006D6500006D61696E001600280404440818
:102BB4000C1014181C2021220000000069646C65AC
:102BC40000000000F02C0008F8500020F85000200D
:102BD400F8500020F02C0008000000000000000065
:102BE40000000000F02C00080000000000000000BD
:102BF40000000000F02C00080000000000000000AD
:102C040000000000F02C000800000000000000009C
:102C140000000000F02C000800000000000000008C
:102C240000000000F02C000800000000000000007C
:102C340000000000F02C000800000000000000006C
:102C4400000000000000000011140008F114000846
:102C5400E111000861120008D111000851120008A6
:0C2C640001140008E1140008A10D000894
:082C7000A8D6FF7F010000005F
:102C7800FF00000000127A0064000000000000005D
:102C8800010000000000000001000000000000003A
:102C9800000000000000000000000000000000002C
:102CA8000000000000000000A08601006400000091
:102CB800000000000100000000000000000000000B
:102CC80000000000000000000000000000000000FC
:102CD8000000000000000000000000008025000047
:082CE800001400400000000090
:04000005080002B934
:00000001FF
